{
  "contractName": "EventFactory",
  "abi": [
    {
      "inputs": [],
      "stateMutability": "nonpayable",
      "type": "constructor"
    },
    {
      "anonymous": false,
      "inputs": [
        {
          "indexed": true,
          "internalType": "address",
          "name": "owner",
          "type": "address"
        },
        {
          "indexed": true,
          "internalType": "address",
          "name": "approved",
          "type": "address"
        },
        {
          "indexed": true,
          "internalType": "uint256",
          "name": "tokenId",
          "type": "uint256"
        }
      ],
      "name": "Approval",
      "type": "event"
    },
    {
      "anonymous": false,
      "inputs": [
        {
          "indexed": true,
          "internalType": "address",
          "name": "owner",
          "type": "address"
        },
        {
          "indexed": true,
          "internalType": "address",
          "name": "operator",
          "type": "address"
        },
        {
          "indexed": false,
          "internalType": "bool",
          "name": "approved",
          "type": "bool"
        }
      ],
      "name": "ApprovalForAll",
      "type": "event"
    },
    {
      "anonymous": false,
      "inputs": [
        {
          "indexed": true,
          "internalType": "address",
          "name": "previousOwner",
          "type": "address"
        },
        {
          "indexed": true,
          "internalType": "address",
          "name": "newOwner",
          "type": "address"
        }
      ],
      "name": "OwnershipTransferred",
      "type": "event"
    },
    {
      "anonymous": false,
      "inputs": [
        {
          "indexed": true,
          "internalType": "address",
          "name": "from",
          "type": "address"
        },
        {
          "indexed": true,
          "internalType": "address",
          "name": "to",
          "type": "address"
        },
        {
          "indexed": true,
          "internalType": "uint256",
          "name": "tokenId",
          "type": "uint256"
        }
      ],
      "name": "Transfer",
      "type": "event"
    },
    {
      "inputs": [
        {
          "internalType": "address",
          "name": "to",
          "type": "address"
        },
        {
          "internalType": "uint256",
          "name": "tokenId",
          "type": "uint256"
        }
      ],
      "name": "approve",
      "outputs": [],
      "stateMutability": "nonpayable",
      "type": "function"
    },
    {
      "inputs": [
        {
          "internalType": "address",
          "name": "owner",
          "type": "address"
        }
      ],
      "name": "balanceOf",
      "outputs": [
        {
          "internalType": "uint256",
          "name": "",
          "type": "uint256"
        }
      ],
      "stateMutability": "view",
      "type": "function"
    },
    {
      "inputs": [
        {
          "internalType": "uint256",
          "name": "tokenId",
          "type": "uint256"
        }
      ],
      "name": "getApproved",
      "outputs": [
        {
          "internalType": "address",
          "name": "",
          "type": "address"
        }
      ],
      "stateMutability": "view",
      "type": "function"
    },
    {
      "inputs": [
        {
          "internalType": "address",
          "name": "owner",
          "type": "address"
        },
        {
          "internalType": "address",
          "name": "operator",
          "type": "address"
        }
      ],
      "name": "isApprovedForAll",
      "outputs": [
        {
          "internalType": "bool",
          "name": "",
          "type": "bool"
        }
      ],
      "stateMutability": "view",
      "type": "function"
    },
    {
      "inputs": [],
      "name": "name",
      "outputs": [
        {
          "internalType": "string",
          "name": "",
          "type": "string"
        }
      ],
      "stateMutability": "view",
      "type": "function"
    },
    {
      "inputs": [],
      "name": "owner",
      "outputs": [
        {
          "internalType": "address",
          "name": "",
          "type": "address"
        }
      ],
      "stateMutability": "view",
      "type": "function"
    },
    {
      "inputs": [
        {
          "internalType": "uint256",
          "name": "tokenId",
          "type": "uint256"
        }
      ],
      "name": "ownerOf",
      "outputs": [
        {
          "internalType": "address",
          "name": "",
          "type": "address"
        }
      ],
      "stateMutability": "view",
      "type": "function"
    },
    {
      "inputs": [],
      "name": "renounceOwnership",
      "outputs": [],
      "stateMutability": "nonpayable",
      "type": "function"
    },
    {
      "inputs": [
        {
          "internalType": "address",
          "name": "from",
          "type": "address"
        },
        {
          "internalType": "address",
          "name": "to",
          "type": "address"
        },
        {
          "internalType": "uint256",
          "name": "tokenId",
          "type": "uint256"
        }
      ],
      "name": "safeTransferFrom",
      "outputs": [],
      "stateMutability": "nonpayable",
      "type": "function"
    },
    {
      "inputs": [
        {
          "internalType": "address",
          "name": "from",
          "type": "address"
        },
        {
          "internalType": "address",
          "name": "to",
          "type": "address"
        },
        {
          "internalType": "uint256",
          "name": "tokenId",
          "type": "uint256"
        },
        {
          "internalType": "bytes",
          "name": "_data",
          "type": "bytes"
        }
      ],
      "name": "safeTransferFrom",
      "outputs": [],
      "stateMutability": "nonpayable",
      "type": "function"
    },
    {
      "inputs": [
        {
          "internalType": "address",
          "name": "operator",
          "type": "address"
        },
        {
          "internalType": "bool",
          "name": "approved",
          "type": "bool"
        }
      ],
      "name": "setApprovalForAll",
      "outputs": [],
      "stateMutability": "nonpayable",
      "type": "function"
    },
    {
      "inputs": [
        {
          "internalType": "bytes4",
          "name": "interfaceId",
          "type": "bytes4"
        }
      ],
      "name": "supportsInterface",
      "outputs": [
        {
          "internalType": "bool",
          "name": "",
          "type": "bool"
        }
      ],
      "stateMutability": "view",
      "type": "function"
    },
    {
      "inputs": [],
      "name": "symbol",
      "outputs": [
        {
          "internalType": "string",
          "name": "",
          "type": "string"
        }
      ],
      "stateMutability": "view",
      "type": "function"
    },
    {
      "inputs": [
        {
          "internalType": "uint256",
          "name": "tokenId",
          "type": "uint256"
        }
      ],
      "name": "tokenURI",
      "outputs": [
        {
          "internalType": "string",
          "name": "",
          "type": "string"
        }
      ],
      "stateMutability": "view",
      "type": "function"
    },
    {
      "inputs": [
        {
          "internalType": "address",
          "name": "from",
          "type": "address"
        },
        {
          "internalType": "address",
          "name": "to",
          "type": "address"
        },
        {
          "internalType": "uint256",
          "name": "tokenId",
          "type": "uint256"
        }
      ],
      "name": "transferFrom",
      "outputs": [],
      "stateMutability": "nonpayable",
      "type": "function"
    },
    {
      "inputs": [
        {
          "internalType": "address",
          "name": "newOwner",
          "type": "address"
        }
      ],
      "name": "transferOwnership",
      "outputs": [],
      "stateMutability": "nonpayable",
      "type": "function"
    }
  ],
  "bytecode": "0x60806040523480156200001157600080fd5b506040518060400160405280600881526020017f6576656e744e46540000000000000000000000000000000000000000000000008152506040518060400160405280600481526020017f454e46540000000000000000000000000000000000000000000000000000000081525081600090805190602001906200009692919062000171565b508060019080519060200190620000af92919062000171565b5050506000620000c46200016960201b60201c565b905080600660006101000a81548173ffffffffffffffffffffffffffffffffffffffff021916908373ffffffffffffffffffffffffffffffffffffffff1602179055508073ffffffffffffffffffffffffffffffffffffffff16600073ffffffffffffffffffffffffffffffffffffffff167f8be0079c531659141344cd1fd0a4f28419497f9722a3daafe3b4186f6b6457e060405160405180910390a35062000286565b600033905090565b8280546200017f9062000221565b90600052602060002090601f016020900481019282620001a35760008555620001ef565b82601f10620001be57805160ff1916838001178555620001ef565b82800160010185558215620001ef579182015b82811115620001ee578251825591602001919060010190620001d1565b5b509050620001fe919062000202565b5090565b5b808211156200021d57600081600090555060010162000203565b5090565b600060028204905060018216806200023a57607f821691505b6020821081141562000251576200025062000257565b5b50919050565b7f4e487b7100000000000000000000000000000000000000000000000000000000600052602260045260246000fd5b61275d80620002966000396000f3fe608060405234801561001057600080fd5b50600436106101005760003560e01c8063715018a611610097578063b88d4fde11610066578063b88d4fde14610299578063c87b56dd146102b5578063e985e9c5146102e5578063f2fde38b1461031557610100565b8063715018a6146102375780638da5cb5b1461024157806395d89b411461025f578063a22cb4651461027d57610100565b806323b872dd116100d357806323b872dd1461019f57806342842e0e146101bb5780636352211e146101d757806370a082311461020757610100565b806301ffc9a71461010557806306fdde0314610135578063081812fc14610153578063095ea7b314610183575b600080fd5b61011f600480360381019061011a9190611a07565b610331565b60405161012c9190612125565b60405180910390f35b61013d610413565b60405161014a9190612140565b60405180910390f35b61016d60048036038101906101689190611a59565b6104a5565b60405161017a91906120be565b60405180910390f35b61019d600480360381019061019891906119cb565b61052a565b005b6101b960048036038101906101b491906118c5565b610642565b005b6101d560048036038101906101d091906118c5565b6106a2565b005b6101f160048036038101906101ec9190611a59565b6106c2565b6040516101fe91906120be565b60405180910390f35b610221600480360381019061021c9190611860565b610774565b60405161022e9190612322565b60405180910390f35b61023f61082c565b005b610249610969565b60405161025691906120be565b60405180910390f35b610267610993565b6040516102749190612140565b60405180910390f35b6102976004803603810190610292919061198f565b610a25565b005b6102b360048036038101906102ae9190611914565b610ba6565b005b6102cf60048036038101906102ca9190611a59565b610c08565b6040516102dc9190612140565b60405180910390f35b6102ff60048036038101906102fa9190611889565b610caf565b60405161030c9190612125565b60405180910390f35b61032f600480360381019061032a9190611860565b610d43565b005b60007f80ac58cd000000000000000000000000000000000000000000000000000000007bffffffffffffffffffffffffffffffffffffffffffffffffffffffff1916827bffffffffffffffffffffffffffffffffffffffffffffffffffffffff191614806103fc57507f5b5e139f000000000000000000000000000000000000000000000000000000007bffffffffffffffffffffffffffffffffffffffffffffffffffffffff1916827bffffffffffffffffffffffffffffffffffffffffffffffffffffffff1916145b8061040c575061040b82610eef565b5b9050919050565b60606000805461042290612552565b80601f016020809104026020016040519081016040528092919081815260200182805461044e90612552565b801561049b5780601f106104705761010080835404028352916020019161049b565b820191906000526020600020905b81548152906001019060200180831161047e57829003601f168201915b5050505050905090565b60006104b082610f59565b6104ef576040517f08c379a00000000000000000000000000000000000000000000000000000000081526004016104e690612262565b60405180910390fd5b6004600083815260200190815260200160002060009054906101000a900473ffffffffffffffffffffffffffffffffffffffff169050919050565b6000610535826106c2565b90508073ffffffffffffffffffffffffffffffffffffffff168373ffffffffffffffffffffffffffffffffffffffff1614156105a6576040517f08c379a000000000000000000000000000000000000000000000000000000000815260040161059d906122e2565b60405180910390fd5b8073ffffffffffffffffffffffffffffffffffffffff166105c5610fc5565b73ffffffffffffffffffffffffffffffffffffffff1614806105f457506105f3816105ee610fc5565b610caf565b5b610633576040517f08c379a000000000000000000000000000000000000000000000000000000000815260040161062a90612202565b60405180910390fd5b61063d8383610fcd565b505050565b61065361064d610fc5565b82611086565b610692576040517f08c379a000000000000000000000000000000000000000000000000000000000815260040161068990612302565b60405180910390fd5b61069d838383611164565b505050565b6106bd83838360405180602001604052806000815250610ba6565b505050565b6000806002600084815260200190815260200160002060009054906101000a900473ffffffffffffffffffffffffffffffffffffffff169050600073ffffffffffffffffffffffffffffffffffffffff168173ffffffffffffffffffffffffffffffffffffffff16141561076b576040517f08c379a000000000000000000000000000000000000000000000000000000000815260040161076290612242565b60405180910390fd5b80915050919050565b60008073ffffffffffffffffffffffffffffffffffffffff168273ffffffffffffffffffffffffffffffffffffffff1614156107e5576040517f08c379a00000000000000000000000000000000000000000000000000000000081526004016107dc90612222565b60405180910390fd5b600360008373ffffffffffffffffffffffffffffffffffffffff1673ffffffffffffffffffffffffffffffffffffffff168152602001908152602001600020549050919050565b610834610fc5565b73ffffffffffffffffffffffffffffffffffffffff16610852610969565b73ffffffffffffffffffffffffffffffffffffffff16146108a8576040517f08c379a000000000000000000000000000000000000000000000000000000000815260040161089f90612282565b60405180910390fd5b600073ffffffffffffffffffffffffffffffffffffffff16600660009054906101000a900473ffffffffffffffffffffffffffffffffffffffff1673ffffffffffffffffffffffffffffffffffffffff167f8be0079c531659141344cd1fd0a4f28419497f9722a3daafe3b4186f6b6457e060405160405180910390a36000600660006101000a81548173ffffffffffffffffffffffffffffffffffffffff021916908373ffffffffffffffffffffffffffffffffffffffff160217905550565b6000600660009054906101000a900473ffffffffffffffffffffffffffffffffffffffff16905090565b6060600180546109a290612552565b80601f01602080910402602001604051908101604052809291908181526020018280546109ce90612552565b8015610a1b5780601f106109f057610100808354040283529160200191610a1b565b820191906000526020600020905b8154815290600101906020018083116109fe57829003601f168201915b5050505050905090565b610a2d610fc5565b73ffffffffffffffffffffffffffffffffffffffff168273ffffffffffffffffffffffffffffffffffffffff161415610a9b576040517f08c379a0000000000000000000000000000000000000000000000000000000008152600401610a92906121c2565b60405180910390fd5b8060056000610aa8610fc5565b73ffffffffffffffffffffffffffffffffffffffff1673ffffffffffffffffffffffffffffffffffffffff16815260200190815260200160002060008473ffffffffffffffffffffffffffffffffffffffff1673ffffffffffffffffffffffffffffffffffffffff16815260200190815260200160002060006101000a81548160ff0219169083151502179055508173ffffffffffffffffffffffffffffffffffffffff16610b55610fc5565b73ffffffffffffffffffffffffffffffffffffffff167f17307eab39ab6107e8899845ad3d59bd9653f200f220920489ca2b5937696c3183604051610b9a9190612125565b60405180910390a35050565b610bb7610bb1610fc5565b83611086565b610bf6576040517f08c379a0000000000000000000000000000000000000000000000000000000008152600401610bed90612302565b60405180910390fd5b610c02848484846113c0565b50505050565b6060610c1382610f59565b610c52576040517f08c379a0000000000000000000000000000000000000000000000000000000008152600401610c49906122c2565b60405180910390fd5b6000610c5c61141c565b90506000815111610c7c5760405180602001604052806000815250610ca7565b80610c8684611433565b604051602001610c9792919061209a565b6040516020818303038152906040525b915050919050565b6000600560008473ffffffffffffffffffffffffffffffffffffffff1673ffffffffffffffffffffffffffffffffffffffff16815260200190815260200160002060008373ffffffffffffffffffffffffffffffffffffffff1673ffffffffffffffffffffffffffffffffffffffff16815260200190815260200160002060009054906101000a900460ff16905092915050565b610d4b610fc5565b73ffffffffffffffffffffffffffffffffffffffff16610d69610969565b73ffffffffffffffffffffffffffffffffffffffff1614610dbf576040517f08c379a0000000000000000000000000000000000000000000000000000000008152600401610db690612282565b60405180910390fd5b600073ffffffffffffffffffffffffffffffffffffffff168173ffffffffffffffffffffffffffffffffffffffff161415610e2f576040517f08c379a0000000000000000000000000000000000000000000000000000000008152600401610e2690612182565b60405180910390fd5b8073ffffffffffffffffffffffffffffffffffffffff16600660009054906101000a900473ffffffffffffffffffffffffffffffffffffffff1673ffffffffffffffffffffffffffffffffffffffff167f8be0079c531659141344cd1fd0a4f28419497f9722a3daafe3b4186f6b6457e060405160405180910390a380600660006101000a81548173ffffffffffffffffffffffffffffffffffffffff021916908373ffffffffffffffffffffffffffffffffffffffff16021790555050565b60007f01ffc9a7000000000000000000000000000000000000000000000000000000007bffffffffffffffffffffffffffffffffffffffffffffffffffffffff1916827bffffffffffffffffffffffffffffffffffffffffffffffffffffffff1916149050919050565b60008073ffffffffffffffffffffffffffffffffffffffff166002600084815260200190815260200160002060009054906101000a900473ffffffffffffffffffffffffffffffffffffffff1673ffffffffffffffffffffffffffffffffffffffff1614159050919050565b600033905090565b816004600083815260200190815260200160002060006101000a81548173ffffffffffffffffffffffffffffffffffffffff021916908373ffffffffffffffffffffffffffffffffffffffff160217905550808273ffffffffffffffffffffffffffffffffffffffff16611040836106c2565b73ffffffffffffffffffffffffffffffffffffffff167f8c5be1e5ebec7d5bd14f71427d1e84f3dd0314c0f7b2291e5b200ac8c7c3b92560405160405180910390a45050565b600061109182610f59565b6110d0576040517f08c379a00000000000000000000000000000000000000000000000000000000081526004016110c7906121e2565b60405180910390fd5b60006110db836106c2565b90508073ffffffffffffffffffffffffffffffffffffffff168473ffffffffffffffffffffffffffffffffffffffff16148061114a57508373ffffffffffffffffffffffffffffffffffffffff16611132846104a5565b73ffffffffffffffffffffffffffffffffffffffff16145b8061115b575061115a8185610caf565b5b91505092915050565b8273ffffffffffffffffffffffffffffffffffffffff16611184826106c2565b73ffffffffffffffffffffffffffffffffffffffff16146111da576040517f08c379a00000000000000000000000000000000000000000000000000000000081526004016111d1906122a2565b60405180910390fd5b600073ffffffffffffffffffffffffffffffffffffffff168273ffffffffffffffffffffffffffffffffffffffff16141561124a576040517f08c379a0000000000000000000000000000000000000000000000000000000008152600401611241906121a2565b60405180910390fd5b6112558383836115e0565b611260600082610fcd565b6001600360008573ffffffffffffffffffffffffffffffffffffffff1673ffffffffffffffffffffffffffffffffffffffff16815260200190815260200160002060008282546112b09190612468565b925050819055506001600360008473ffffffffffffffffffffffffffffffffffffffff1673ffffffffffffffffffffffffffffffffffffffff168152602001908152602001600020600082825461130791906123e1565b92505081905550816002600083815260200190815260200160002060006101000a81548173ffffffffffffffffffffffffffffffffffffffff021916908373ffffffffffffffffffffffffffffffffffffffff160217905550808273ffffffffffffffffffffffffffffffffffffffff168473ffffffffffffffffffffffffffffffffffffffff167fddf252ad1be2c89b69c2b068fc378daa952ba7f163c4a11628f55a4df523b3ef60405160405180910390a4505050565b6113cb848484611164565b6113d7848484846115e5565b611416576040517f08c379a000000000000000000000000000000000000000000000000000000000815260040161140d90612162565b60405180910390fd5b50505050565b606060405180602001604052806000815250905090565b6060600082141561147b576040518060400160405280600181526020017f300000000000000000000000000000000000000000000000000000000000000081525090506115db565b600082905060005b600082146114ad57808061149690612584565b915050600a826114a69190612437565b9150611483565b60008167ffffffffffffffff8111156114ef577f4e487b7100000000000000000000000000000000000000000000000000000000600052604160045260246000fd5b6040519080825280601f01601f1916602001820160405280156115215781602001600182028036833780820191505090505b5090505b600085146115d45760018261153a9190612468565b9150600a8561154991906125cd565b603061155591906123e1565b60f81b818381518110611591577f4e487b7100000000000000000000000000000000000000000000000000000000600052603260045260246000fd5b60200101907effffffffffffffffffffffffffffffffffffffffffffffffffffffffffffff1916908160001a905350600a856115cd9190612437565b9450611525565b8093505050505b919050565b505050565b60006116068473ffffffffffffffffffffffffffffffffffffffff1661177c565b1561176f578373ffffffffffffffffffffffffffffffffffffffff1663150b7a0261162f610fc5565b8786866040518563ffffffff1660e01b815260040161165194939291906120d9565b602060405180830381600087803b15801561166b57600080fd5b505af192505050801561169c57506040513d601f19601f820116820180604052508101906116999190611a30565b60015b61171f573d80600081146116cc576040519150601f19603f3d011682016040523d82523d6000602084013e6116d1565b606091505b50600081511415611717576040517f08c379a000000000000000000000000000000000000000000000000000000000815260040161170e90612162565b60405180910390fd5b805181602001fd5b63150b7a0260e01b7bffffffffffffffffffffffffffffffffffffffffffffffffffffffff1916817bffffffffffffffffffffffffffffffffffffffffffffffffffffffff191614915050611774565b600190505b949350505050565b600080823b905060008111915050919050565b60006117a261179d8461236e565b61233d565b9050828152602081018484840111156117ba57600080fd5b6117c5848285612510565b509392505050565b6000813590506117dc816126cb565b92915050565b6000813590506117f1816126e2565b92915050565b600081359050611806816126f9565b92915050565b60008151905061181b816126f9565b92915050565b600082601f83011261183257600080fd5b813561184284826020860161178f565b91505092915050565b60008135905061185a81612710565b92915050565b60006020828403121561187257600080fd5b6000611880848285016117cd565b91505092915050565b6000806040838503121561189c57600080fd5b60006118aa858286016117cd565b92505060206118bb858286016117cd565b9150509250929050565b6000806000606084860312156118da57600080fd5b60006118e8868287016117cd565b93505060206118f9868287016117cd565b925050604061190a8682870161184b565b9150509250925092565b6000806000806080858703121561192a57600080fd5b6000611938878288016117cd565b9450506020611949878288016117cd565b935050604061195a8782880161184b565b925050606085013567ffffffffffffffff81111561197757600080fd5b61198387828801611821565b91505092959194509250565b600080604083850312156119a257600080fd5b60006119b0858286016117cd565b92505060206119c1858286016117e2565b9150509250929050565b600080604083850312156119de57600080fd5b60006119ec858286016117cd565b92505060206119fd8582860161184b565b9150509250929050565b600060208284031215611a1957600080fd5b6000611a27848285016117f7565b91505092915050565b600060208284031215611a4257600080fd5b6000611a508482850161180c565b91505092915050565b600060208284031215611a6b57600080fd5b6000611a798482850161184b565b91505092915050565b611a8b8161249c565b82525050565b611a9a816124ae565b82525050565b6000611aab8261239e565b611ab581856123b4565b9350611ac581856020860161251f565b611ace816126ba565b840191505092915050565b6000611ae4826123a9565b611aee81856123c5565b9350611afe81856020860161251f565b611b07816126ba565b840191505092915050565b6000611b1d826123a9565b611b2781856123d6565b9350611b3781856020860161251f565b80840191505092915050565b6000611b506032836123c5565b91507f4552433732313a207472616e7366657220746f206e6f6e20455243373231526560008301527f63656976657220696d706c656d656e74657200000000000000000000000000006020830152604082019050919050565b6000611bb66026836123c5565b91507f4f776e61626c653a206e6577206f776e657220697320746865207a65726f206160008301527f64647265737300000000000000000000000000000000000000000000000000006020830152604082019050919050565b6000611c1c6024836123c5565b91507f4552433732313a207472616e7366657220746f20746865207a65726f2061646460008301527f72657373000000000000000000000000000000000000000000000000000000006020830152604082019050919050565b6000611c826019836123c5565b91507f4552433732313a20617070726f766520746f2063616c6c6572000000000000006000830152602082019050919050565b6000611cc2602c836123c5565b91507f4552433732313a206f70657261746f7220717565727920666f72206e6f6e657860008301527f697374656e7420746f6b656e00000000000000000000000000000000000000006020830152604082019050919050565b6000611d286038836123c5565b91507f4552433732313a20617070726f76652063616c6c6572206973206e6f74206f7760008301527f6e6572206e6f7220617070726f76656420666f7220616c6c00000000000000006020830152604082019050919050565b6000611d8e602a836123c5565b91507f4552433732313a2062616c616e636520717565727920666f7220746865207a6560008301527f726f2061646472657373000000000000000000000000000000000000000000006020830152604082019050919050565b6000611df46029836123c5565b91507f4552433732313a206f776e657220717565727920666f72206e6f6e657869737460008301527f656e7420746f6b656e00000000000000000000000000000000000000000000006020830152604082019050919050565b6000611e5a602c836123c5565b91507f4552433732313a20617070726f76656420717565727920666f72206e6f6e657860008301527f697374656e7420746f6b656e00000000000000000000000000000000000000006020830152604082019050919050565b6000611ec06020836123c5565b91507f4f776e61626c653a2063616c6c6572206973206e6f7420746865206f776e65726000830152602082019050919050565b6000611f006029836123c5565b91507f4552433732313a207472616e73666572206f6620746f6b656e2074686174206960008301527f73206e6f74206f776e00000000000000000000000000000000000000000000006020830152604082019050919050565b6000611f66602f836123c5565b91507f4552433732314d657461646174613a2055524920717565727920666f72206e6f60008301527f6e6578697374656e7420746f6b656e00000000000000000000000000000000006020830152604082019050919050565b6000611fcc6021836123c5565b91507f4552433732313a20617070726f76616c20746f2063757272656e74206f776e6560008301527f72000000000000000000000000000000000000000000000000000000000000006020830152604082019050919050565b60006120326031836123c5565b91507f4552433732313a207472616e736665722063616c6c6572206973206e6f74206f60008301527f776e6572206e6f7220617070726f7665640000000000000000000000000000006020830152604082019050919050565b61209481612506565b82525050565b60006120a68285611b12565b91506120b28284611b12565b91508190509392505050565b60006020820190506120d36000830184611a82565b92915050565b60006080820190506120ee6000830187611a82565b6120fb6020830186611a82565b612108604083018561208b565b818103606083015261211a8184611aa0565b905095945050505050565b600060208201905061213a6000830184611a91565b92915050565b6000602082019050818103600083015261215a8184611ad9565b905092915050565b6000602082019050818103600083015261217b81611b43565b9050919050565b6000602082019050818103600083015261219b81611ba9565b9050919050565b600060208201905081810360008301526121bb81611c0f565b9050919050565b600060208201905081810360008301526121db81611c75565b9050919050565b600060208201905081810360008301526121fb81611cb5565b9050919050565b6000602082019050818103600083015261221b81611d1b565b9050919050565b6000602082019050818103600083015261223b81611d81565b9050919050565b6000602082019050818103600083015261225b81611de7565b9050919050565b6000602082019050818103600083015261227b81611e4d565b9050919050565b6000602082019050818103600083015261229b81611eb3565b9050919050565b600060208201905081810360008301526122bb81611ef3565b9050919050565b600060208201905081810360008301526122db81611f59565b9050919050565b600060208201905081810360008301526122fb81611fbf565b9050919050565b6000602082019050818103600083015261231b81612025565b9050919050565b6000602082019050612337600083018461208b565b92915050565b6000604051905081810181811067ffffffffffffffff821117156123645761236361268b565b5b8060405250919050565b600067ffffffffffffffff8211156123895761238861268b565b5b601f19601f8301169050602081019050919050565b600081519050919050565b600081519050919050565b600082825260208201905092915050565b600082825260208201905092915050565b600081905092915050565b60006123ec82612506565b91506123f783612506565b9250827fffffffffffffffffffffffffffffffffffffffffffffffffffffffffffffffff0382111561242c5761242b6125fe565b5b828201905092915050565b600061244282612506565b915061244d83612506565b92508261245d5761245c61262d565b5b828204905092915050565b600061247382612506565b915061247e83612506565b925082821015612491576124906125fe565b5b828203905092915050565b60006124a7826124e6565b9050919050565b60008115159050919050565b60007fffffffff0000000000000000000000000000000000000000000000000000000082169050919050565b600073ffffffffffffffffffffffffffffffffffffffff82169050919050565b6000819050919050565b82818337600083830152505050565b60005b8381101561253d578082015181840152602081019050612522565b8381111561254c576000848401525b50505050565b6000600282049050600182168061256a57607f821691505b6020821081141561257e5761257d61265c565b5b50919050565b600061258f82612506565b91507fffffffffffffffffffffffffffffffffffffffffffffffffffffffffffffffff8214156125c2576125c16125fe565b5b600182019050919050565b60006125d882612506565b91506125e383612506565b9250826125f3576125f261262d565b5b828206905092915050565b7f4e487b7100000000000000000000000000000000000000000000000000000000600052601160045260246000fd5b7f4e487b7100000000000000000000000000000000000000000000000000000000600052601260045260246000fd5b7f4e487b7100000000000000000000000000000000000000000000000000000000600052602260045260246000fd5b7f4e487b7100000000000000000000000000000000000000000000000000000000600052604160045260246000fd5b6000601f19601f8301169050919050565b6126d48161249c565b81146126df57600080fd5b50565b6126eb816124ae565b81146126f657600080fd5b50565b612702816124ba565b811461270d57600080fd5b50565b61271981612506565b811461272457600080fd5b5056fea26469706673582212208f98779eb44cbd31a0f21a3440c0cbc964a1579cdba42e404fc8b6794420440064736f6c63430008000033",
  "immutableReferences": {},
  "source": "// contracts/eventNFT.sol\n// SPDX-License-Identifier: MIT\npragma solidity ^0.8.0;\n\nimport \"@openzeppelin/contracts/token/ERC721/ERC721.sol\";\nimport \"@openzeppelin/contracts/access/Ownable.sol\";\n\ncontract EventFactory is ERC721, Ownable {\n    constructor() ERC721(\"eventNFT\", \"ENFT\") {\n    }\n}\n",
  "sourcePath": "/Users/slava/projects/solidity_course_march_2021/event_ticket_service/contracts/eventfactory.sol",
  "compiler": {
    "name": "solc",
    "version": "0.8.0+commit.c7dfd78e.Emscripten.clang"
  },
  "schemaVersion": "3.3.4",
  "updatedAt": "2021-03-29T05:41:31.601Z",
  "devdoc": {
    "kind": "dev",
    "methods": {
      "approve(address,uint256)": {
        "details": "See {IERC721-approve}."
      },
      "balanceOf(address)": {
        "details": "See {IERC721-balanceOf}."
      },
      "getApproved(uint256)": {
        "details": "See {IERC721-getApproved}."
      },
      "isApprovedForAll(address,address)": {
        "details": "See {IERC721-isApprovedForAll}."
      },
      "name()": {
        "details": "See {IERC721Metadata-name}."
      },
      "owner()": {
        "details": "Returns the address of the current owner."
      },
      "ownerOf(uint256)": {
        "details": "See {IERC721-ownerOf}."
      },
      "renounceOwnership()": {
        "details": "Leaves the contract without owner. It will not be possible to call `onlyOwner` functions anymore. Can only be called by the current owner. NOTE: Renouncing ownership will leave the contract without an owner, thereby removing any functionality that is only available to the owner."
      },
      "safeTransferFrom(address,address,uint256)": {
        "details": "See {IERC721-safeTransferFrom}."
      },
      "safeTransferFrom(address,address,uint256,bytes)": {
        "details": "See {IERC721-safeTransferFrom}."
      },
      "setApprovalForAll(address,bool)": {
        "details": "See {IERC721-setApprovalForAll}."
      },
      "supportsInterface(bytes4)": {
        "details": "See {IERC165-supportsInterface}."
      },
      "symbol()": {
        "details": "See {IERC721Metadata-symbol}."
      },
      "tokenURI(uint256)": {
        "details": "See {IERC721Metadata-tokenURI}."
      },
      "transferFrom(address,address,uint256)": {
        "details": "See {IERC721-transferFrom}."
      },
      "transferOwnership(address)": {
        "details": "Transfers ownership of the contract to a new account (`newOwner`). Can only be called by the current owner."
      }
    },
    "version": 1
  },
  "userdoc": {
    "kind": "user",
    "methods": {},
    "version": 1
  }
}