{
  "contractName": "EventFactory",
  "abi": [
    {
      "anonymous": false,
      "inputs": [
        {
          "indexed": true,
          "internalType": "address",
          "name": "previousOwner",
          "type": "address"
        },
        {
          "indexed": true,
          "internalType": "address",
          "name": "newOwner",
          "type": "address"
        }
      ],
      "name": "OwnershipTransferred",
      "type": "event"
    },
    {
      "inputs": [
        {
          "internalType": "uint256",
          "name": "",
          "type": "uint256"
        }
      ],
      "name": "eventToOwner",
      "outputs": [
        {
          "internalType": "address",
          "name": "",
          "type": "address"
        }
      ],
      "stateMutability": "view",
      "type": "function"
    },
    {
      "inputs": [
        {
          "internalType": "uint256",
          "name": "",
          "type": "uint256"
        }
      ],
      "name": "events",
      "outputs": [
        {
          "internalType": "contract ERC721",
          "name": "",
          "type": "address"
        }
      ],
      "stateMutability": "view",
      "type": "function"
    },
    {
      "inputs": [],
      "name": "owner",
      "outputs": [
        {
          "internalType": "address",
          "name": "",
          "type": "address"
        }
      ],
      "stateMutability": "view",
      "type": "function"
    },
    {
      "inputs": [],
      "name": "renounceOwnership",
      "outputs": [],
      "stateMutability": "nonpayable",
      "type": "function"
    },
    {
      "inputs": [
        {
          "internalType": "address",
          "name": "newOwner",
          "type": "address"
        }
      ],
      "name": "transferOwnership",
      "outputs": [],
      "stateMutability": "nonpayable",
      "type": "function"
    }
  ],
  "bytecode": "0x608060405234801561001057600080fd5b5060006100216100c460201b60201c565b9050806000806101000a81548173ffffffffffffffffffffffffffffffffffffffff021916908373ffffffffffffffffffffffffffffffffffffffff1602179055508073ffffffffffffffffffffffffffffffffffffffff16600073ffffffffffffffffffffffffffffffffffffffff167f8be0079c531659141344cd1fd0a4f28419497f9722a3daafe3b4186f6b6457e060405160405180910390a3506100cc565b600033905090565b610711806100db6000396000f3fe608060405234801561001057600080fd5b50600436106100575760003560e01c80630b7914301461005c5780633ff962221461008c578063715018a6146100bc5780638da5cb5b146100c6578063f2fde38b146100e4575b600080fd5b610076600480360381019061007191906104d9565b610100565b60405161008391906105e1565b60405180910390f35b6100a660048036038101906100a191906104d9565b61013f565b6040516100b391906105c6565b60405180910390f35b6100c4610172565b005b6100ce6102ac565b6040516100db91906105c6565b60405180910390f35b6100fe60048036038101906100f991906104b0565b6102d5565b005b6001818154811061011057600080fd5b906000526020600020016000915054906101000a900473ffffffffffffffffffffffffffffffffffffffff1681565b60026020528060005260406000206000915054906101000a900473ffffffffffffffffffffffffffffffffffffffff1681565b61017a61047e565b73ffffffffffffffffffffffffffffffffffffffff166101986102ac565b73ffffffffffffffffffffffffffffffffffffffff16146101ee576040517f08c379a00000000000000000000000000000000000000000000000000000000081526004016101e59061061c565b60405180910390fd5b600073ffffffffffffffffffffffffffffffffffffffff1660008054906101000a900473ffffffffffffffffffffffffffffffffffffffff1673ffffffffffffffffffffffffffffffffffffffff167f8be0079c531659141344cd1fd0a4f28419497f9722a3daafe3b4186f6b6457e060405160405180910390a360008060006101000a81548173ffffffffffffffffffffffffffffffffffffffff021916908373ffffffffffffffffffffffffffffffffffffffff160217905550565b60008060009054906101000a900473ffffffffffffffffffffffffffffffffffffffff16905090565b6102dd61047e565b73ffffffffffffffffffffffffffffffffffffffff166102fb6102ac565b73ffffffffffffffffffffffffffffffffffffffff1614610351576040517f08c379a00000000000000000000000000000000000000000000000000000000081526004016103489061061c565b60405180910390fd5b600073ffffffffffffffffffffffffffffffffffffffff168173ffffffffffffffffffffffffffffffffffffffff1614156103c1576040517f08c379a00000000000000000000000000000000000000000000000000000000081526004016103b8906105fc565b60405180910390fd5b8073ffffffffffffffffffffffffffffffffffffffff1660008054906101000a900473ffffffffffffffffffffffffffffffffffffffff1673ffffffffffffffffffffffffffffffffffffffff167f8be0079c531659141344cd1fd0a4f28419497f9722a3daafe3b4186f6b6457e060405160405180910390a3806000806101000a81548173ffffffffffffffffffffffffffffffffffffffff021916908373ffffffffffffffffffffffffffffffffffffffff16021790555050565b600033905090565b600081359050610495816106ad565b92915050565b6000813590506104aa816106c4565b92915050565b6000602082840312156104c257600080fd5b60006104d084828501610486565b91505092915050565b6000602082840312156104eb57600080fd5b60006104f98482850161049b565b91505092915050565b61050b8161064d565b82525050565b61051a81610689565b82525050565b600061052d60268361063c565b91507f4f776e61626c653a206e6577206f776e657220697320746865207a65726f206160008301527f64647265737300000000000000000000000000000000000000000000000000006020830152604082019050919050565b600061059360208361063c565b91507f4f776e61626c653a2063616c6c6572206973206e6f7420746865206f776e65726000830152602082019050919050565b60006020820190506105db6000830184610502565b92915050565b60006020820190506105f66000830184610511565b92915050565b6000602082019050818103600083015261061581610520565b9050919050565b6000602082019050818103600083015261063581610586565b9050919050565b600082825260208201905092915050565b60006106588261065f565b9050919050565b600073ffffffffffffffffffffffffffffffffffffffff82169050919050565b6000819050919050565b60006106948261069b565b9050919050565b60006106a68261065f565b9050919050565b6106b68161064d565b81146106c157600080fd5b50565b6106cd8161067f565b81146106d857600080fd5b5056fea2646970667358221220e5307926fcf9113b6389c08b939aad992a25dc106e849699d57c6657be31bef564736f6c63430008000033",
  "immutableReferences": {},
  "source": "// contracts/eventNFT.sol\n// SPDX-License-Identifier: MIT\npragma solidity ^0.8.0;\n\nimport \"@openzeppelin/contracts/token/ERC721/ERC721.sol\";\nimport \"@openzeppelin/contracts/access/Ownable.sol\";\n\ncontract EventFactory is Ownable {\n    ERC721[] public events;\n\n    mapping (uint => address) public eventToOwner;\n    mapping (address => uint) ownerEventCount;\n\n}\n",
  "sourcePath": "/Users/slava/projects/solidity_course_march_2021/event_ticket_service/contracts/eventfactory.sol",
  "compiler": {
    "name": "solc",
    "version": "0.8.0+commit.c7dfd78e.Emscripten.clang"
  },
  "schemaVersion": "3.3.4",
  "updatedAt": "2021-03-29T08:56:31.762Z",
  "devdoc": {
    "kind": "dev",
    "methods": {
      "owner()": {
        "details": "Returns the address of the current owner."
      },
      "renounceOwnership()": {
        "details": "Leaves the contract without owner. It will not be possible to call `onlyOwner` functions anymore. Can only be called by the current owner. NOTE: Renouncing ownership will leave the contract without an owner, thereby removing any functionality that is only available to the owner."
      },
      "transferOwnership(address)": {
        "details": "Transfers ownership of the contract to a new account (`newOwner`). Can only be called by the current owner."
      }
    },
    "version": 1
  },
  "userdoc": {
    "kind": "user",
    "methods": {},
    "version": 1
  }
}